:40000000021930008F828E83E0540100000070F82278FFE4F6D8FD02198EEC4D6011E8497017ED33EC3304600DE4FCFFFEFD22E933E8330470F80202E31202AE58046009A6
:40004000E4CC248150062850090202ED2840030202EAC0E0EB4A7044B98006D0E0FB0202D9EF4E701CBD8008EBFFEAFEE9FD80EBE98DF0A4FEE5F0020103E9CDF9EAFEEB24
:40008000FFEF89F0A4FCE5F0CE89F0A42EFFE435F0CD89F0A42DFEE435F08067EF4E7005BD80D780C3EF8BF0A4ACF0EE8BF0A42CFCE435F0F8EF8AF0A42CE5F038FCE433FC
:4000C000CB8DF0A42CFCE5F03BF8EE8AF0A42CFCE5F038F8E433CF89F0A42CFCE5F038CF3400CE89F0A42FFFE5F03EFEE433C98DF0A42EFEE5F039CD8AF0A42FFFE5F03EDF
:40010000FEE43DFD33D0E0FB50070BBB000F0202EDEC2CFCEF33FFEE33FEED33FD0202C50202EDEC5D046005E8590470030202E31202AE580460F6EC4860F2EC7004FDFED7
:40014000FF22C860DB2481C85009C398600250060202EA9850CAF582E9294B4A7005AB820202D975F0007C1A7880C3EF9BEE9AED99400DC3EF9BFFEE9AFEED99FDE842F03B
:40018000DC23ACF0D0E0FFD0E0FED0E0FDAB8220E7101BEB60BAEC2CFCEF33FFEE33FEED33FD0202C5E803F830E705C0F075F000EF2FFFEE33FEED33FD40B830E7C280AA94
:4001C00074F8CC6480CCC86480C8F58204604FC3EB9FF5F0EA9E42F0E99D42F0E89C45F0603C501DE5825FFFE582D313CB5BCBF42B5582FB50280ABA002409B90020088055
:400200001DE5825BFBE582D313CF5FCFF4C3132F5582FF50090EBE00050DBD00010CC3EB9FF5F0EA9E42F0E99D42F0E89C45F06007CC4820E701B3EC2275F020800E75F0B1
:4002400010800575F0087D007E007F003392D530D50312079FEC334010EF33FFEE33FEED33FDEC33FCD5F0ED22E5F0247EA2D513CC92E7CDCEFF22EDD2E7CD33EC3392D5BF
:4002800024814006E4FFFEFDFC22FCE4CFCECDCC24E0501174FF80EDC3CC13CCCD13CDCE13CECF13CF0470F030D5DE02079FE9D2E7C933E833F892D5EDD2E7CD33EC33FCB9
:4002C0005002B2D522EC30E7100FBF000C0EBE00080DBD00040BEB6014A2D5EB13FCED92E7FD2274FFFCFDFEFF22E480F8A2D574FF13FC7D80E480EFF920E73624F950033E
:400300007907E4F42402FBE582158270021583DBF6E024FB501BE96014E4F0E582158270021583E004F0B40A08E4F0D9EE7401F00A22C2D522ED33EC3392D5FA602AB4FF6C
:4003400033EDC2E77BFF60067A03795AE4227A03796320D5047A03795E224E614E002B494E46002D494E4600E47A08F0A3DAFC7B00740722C083C082ECC0E0EDC0E0EEC074
:40038000E0EFC0E0EA75F010A4CAABF075F04DA42BFBE435F0FCEA2410FAEB34C5FBEC34D9FCEDC2E7FF75F056A4F42411C5F0F434C58FF0A42AE5F03BE43CF020E71412A0
:4003C0000562D0E0FFD0E0FED0E0FDD0E0FC1201238014F404120562D0E0FFD0E0FED0E0FDD0E0FC12001AD082D083E0FAEDD2E7CD33EC332482FBE4C3CF33CFCE33CECDCA
:4004000033CD33DBF37B0775F00A846004F0A31B0AE5F0F0A38FF0740AA4FFACF08EF0740AA42CFEACF050010C8DF0740AA42CFDE435F0F0A3DBDE7407220202E3E8648056
:40044000F8E933E83360110460F0ED33EC337009E8FCE9FDEAFEEBFF220460DED3EB9FEA9EE99DE8C2E78CF0C2F795F0400CE8CCF8E9CDF9EACEFAEBCFFB1202AE85D0F005
:400480005804700320D5B3E80470075002B2D50202ED92D5EC0460F7E4CCC0E0C398F8603B94186008400DD0E0FB0202C5E4FBFAC9FC8028E830E406E4C9FBE4CAFCE83025
:4004C000E305E4C9CACBFCE854076010F8C3E913F9EA13FAEB13FBEC13FCD8F130F52FC3E49CFCEF9BFFEE9AFEED99FDD0E0FBEF4E4D4C701222DB030202EAEC2CFCEF3373
:40050000FFEE33FEED33FDED30E7EB0202C5EF2BFFEE3AFEED39FDD0E0FB50130BBB00030202EDED13FDEE13FEEF13FFEC13FC0202C53F8000004120000042C80000447AF5
:400540000000461C400047C35000497424004B1896804CBEBC205A0E1BCA6753C21C749DC5AEFB60065407601C2323120590EB5438600912057C12058B12001AECF8EDF9A6
:40058000EEFAEFCB22EB12058B80F1543803241C900532FE93FC0EEE93FD0EEE930ECE93FF22BB010689828A83E0225002E722BBFE02E32289828A83E49322BB010CE582D4
:4005C00029F582E5833AF583E0225006E92582F8E622BBFE06E92582F8E222E58229F582E5833AF583E49322BB010689828A83F0225002F722BBFE01F322C5F0F8A3E028D6
:40060000F0C5F0F8E582158270021583E038F022BB010A89828A83E0F5F0A3E022500687F009E71922BBFE07E3F5F009E3192289828A83E493F5F074019322BB010A89828D
:400640008A83F0E5F0A3F0225006F709A7F01922BBFE06F3E5F009F31922EF2BFFEE3AFEED39FDEC38FC22C3EF9BFFEE9AFEED99FDEC98FC22E88FF0A4CC8BF0A42CFCE96B
:400680008EF0A42CFC8AF0EDA42CFCEA8EF0A4CDA8F08BF0A42DCC3825F0FDE98FF0A42CCD35F0FCEB8EF0A4FEA9F0EB8FF0A4CFC5F02ECD39FEE43CFCEAA42DCE35F0FD95
:4006C000E43CFC2275F008758200EF2FFFEE33FECD33CDCC33CCC58233C5829BED9AEC99E58298400CF582EE9BFEED9AFDEC99FC0FD5F0D6E4CEFBE4CDFAE4CCF9A88222D7
:40070000B800C1B90059BA002DEC8BF084CFCECDFCE5F0CBF97818EF2FFFEE33FEED33FDEC33FCEB33FB10D703994004EB99FB0FD8E5E4F9FA227818EF2FFFEE33FEED3349
:40074000FDEC33FCC933C910D7059BE99A4007EC9BFCE99AF90FD8E0E4C9FAE4CCFB2275F010EF2FFFEE33FEED33FDCC33CCC833C810D7079BEC9AE899400AED9BFDEC9AD0
:40078000FCE899F80FD5F0DAE4CDFBE4CCFAE4C8F922EF4BFFEE4AFEED49FDEC48FC22C3E49FFFE49EFEE49DFDE49CFC22E8600FECC313FCED13FDEE13FEEF13FFD8F12227
:4007C000E8600FEFC333FFEE33FEED33FDEC33FCD8F122E0FCA3E0FDA3E0FEA3E0FF22E0F8A3E0F9A3E0FAA3E0FB22ECF0A3EDF0A3EEF0A3EFF022E0FBA3E0FAA3E0F92213
:40080000F8E0FBA3A3E0F925F0F0E582158270021583E0FA38F022EBF0A3EAF0A3E9F022E493FB740193FA740293F922D083D082F8E4937012740193700DA3A393F87401A6
:4008400093F5828883E4737402936860EFA3A3A380DFE5162582F582E5153583F583B515048582162210AF06858216F51522858216F515D2AF22EC8EF0A4CCC5F0CCCDF8BC
:40088000EFA4CEC5F02DFDE43CFCE8A42EC8C5F03DFDE43CFCEFA4FFE5F028FEE43DFDE43CFC22E709F608DFFA8046E709F208DFFA803E88828C83E709F0A3DFFA8032E34E
:4008C00009F608DFFA806EE309F208DFFA806688828C83E309F0A3DFFA805A89828A83E0A3F608DFFA804E89828A83E0A3F208DFFA804280D280FA80C680D4805580F2809D
:4009000029801080A680EA809A80A880DA80E280CA802988848C8589828A83E493A30586F0A30586DFF5DEF3800B89828A83E493A3F608DFF9ECFAA9F0EDFB2288848C85A7
:4009400089828A83E0A30586F0A30586DFF6DEF480E389828A83E493A3F208DFF980D688F0EF60010E4E60CD88F0ED2402B4040050C3F582EB2402B4040050B923234582D2
:40098000239008F373E508242BF582E43400F583E005082290002830070390002BE475F0011208000205A22000E97F2ED2008018EF540F2490D43440D4FF30040BEF24BFB8
:4009C000B41A0050032461FFE50960021509050CE50C7002050B30070E900028E475F001120800EF0205E80224F77403D2078003E4C207F508900028120817E4F509F50BBC
:400A0000F50CE50960077F201209C880F5750AFFC201C200C202C203C205C206C208120994FF700D3007057F001209D9AF0CAE0B22B4255FC2D5C204120994FF24D0B40A1F
:400A400000501A75F00A780930D50508B6FF0106C6A426F620D5047002D20380D924CFB41A00EF5004C2E5D204020CCBD20180C6D20080C0D20280BCD2D580BAD20580B4AE
:400A80007F201209C82002077401B5090040F1120985FF1209C8020A02D208D2068095120985FB120985FA120985F94A4B700679C97A0D7BFF20022EE509602A7E008E825E
:400AC0007583001205BB60060EEE650A70F0C2D5EBC0E0EAC0E0E9C0E0EE120D2CD0E0F9D0E0FAD0E0FB1205A2FF60AAEBC0E0EAC0E0E9C0E01209C8D0E02401F9D0E0349A
:400B000000FAD0E0FBE50A0460DCD50AD98087D20280A2120D0E60F7E50A7001041202F8A90A600DE50A600914F50A120DB6EF60F3EA30E702F404C3995079EAF4250A0465
:400B400030E701E404F50A800D120D0E60C1EA050A250A1202F8EA900057F030E701E4250A04D50A0420050114120D2CE4C0E0120DB6900057E0601320E70714F01209B09F
:400B8000802204F0D0E014C0E07F001209B0E50A60071209A7150A800B3005031209A7D0E0020A02D0E00480C4120D0E609EE50A041202F8900057EAF0E50A20050260011D
:400BC000042404120D2C74FF04C0E0120DB61209B0E50A20050260031209A7D0E0B50AE87F451209BA900057E07F2B30E7047F2DF404C0E01209C8D0E075F00A84C0F01284
:400C000009B1D0E01209B1020A02791080027908C206C2088008D2D5790A8004790AC2D5E50A047002F50AE4FAFDFEFF120985FC7B08200113120985FD7B1030000A1209F6
:400C400085FE120985FF7B20EC3382D592D55013C3E43000069FFFE49EFEE42001039DFDE49CFCE4CBF8C201EC700CCFCECDCCE824F8F870F38017C3EF33FFEE33FEED333D
:400C8000FDEC33FCEB33FB994002FB0FD8E9EB300105F8D0E0C448B201C0E00AEC4D4E4F78207B0070C2EAB50A0040BCC0E0120D2ED0F0D0E0200104C4C0E0C4B201C0F05E
:400CC0001209B1D0F0D5F0EB020A0212082C0A9F530C0A580A704C0A6C420C0E4F0C16440C16490A85430C1C550B49460BA9450B13470DE9500A742D0A782E0A9B2B0A7C04
:400D0000230A99200DD22A0A344800000A93E50AB4FF03750A06120985FC120985FD120985FE120985FF900050020335790AA2D5200314300509B910020404B9080104A23D
:400D4000D52006025001042002689202B509005034C0E07F203003197F30A20272067205500F120D85C202C206C205C2087F30800F300503E9C0E01209C8300503D0E0F911
:400D8000D0E0B509CC3005177F30B9100C1209C87F583004077F788003B908031209C83002057F2D0209C87F202008F87F2B2006F322920280CF7F00B40700500B2450F5D8
:400DC00082E43400F583E0FF22286E756C6C2900D2011209853001F8C201780930D50108F6020A342D504349581209852403B405004001E4900DE4931209B9743A1209B940
:400E0000D203750904020C0A900000EFF0900001ECF0A3EDF0900003EAF0A3EBF0900006E0FFEFD394005003021007900006E0FFEFD394014003021007900000E0FFEF122D
:400E4000082C0E55010E55040E82070EAD080ED80A00000F03900005E0FFEFD3940F40117B0C7A017918122572900007EFF0020F087B0C7A01791C122572900007EFF0026A
:400E80000F08900005E0FFEFD3940F40107B0C7A017919122572900007EFF0806B7B0C7A01791D122572900007EFF0805B900005E0FFEFD3940F40107B0C7A01791A1225CD
:400EC00072900007EFF080407B0C7A01791E122572900007EFF08030900005E0FFEFD3940F40107B0C7A01791B122572900007EFF080157B0C7A01791F122572900007EFA6
:400F0000F08005900007E4F0900007E0FFEF3395E0FEFDFC7B207A0079007800120675A804A905AA06AB07900001E0FEA3E0FFE4FCFD12065A9000081207EB9000081207F1
:400F4000D3AB07AA06A905A804A804A905AA06AB07900003E0FEA3E0FFE4FCFD12067590000E1207EB7B007A807900780090000E1207D312070090000CEEF0A3EFF0900092
:400F800005E0FFEFC3940E504790000CE0FEA3E0FF900005E0FDC3740E9DFDEFA805088005CEC313CE13D8F9FF90000CEEF0A3EFF0900005E0FFEF04FF900006E0FEEE755E
:400FC000F003A424A4F582E43400F583EFF08016900006E0FFEF75F003A424A4F582E43400F583740FF090000CE0FEA3E0FF900006E0FDED75F003A424A2F582E43400F5B2
:4010000083EEF0A3EFF0227F001224A3227B007A4679E8122572EF4405FD7B007A4679E812257E751400E514C3940A503AAF14EF75F005A424CEF582E43425F583AF82AE3C
:40104000838E088F09AE08AF098F828E83120820AE08AF098F828E83740393FC740493FD122445051480BF751400E514C394015078AF14EF75F008A42400F582E43426F551
:4010800083AF82AE838E0A8F0BAE0AAF0B8F828E831208208B0C8A0D890EAE0AAF0B8F828E83A3A3A31208208B0F8A108911AE0AAF0B8F828E83740693F512740793F51343
:4010C000AB0FAA10A911C003C002C001AB0CAA0DA90E90000A120817D001D002D003AF13AE1212223B051480817B087A00790012229D905883740AF07B017A5079031225F2
:4011000072EF4402FD7B017A50790312257E7B017A507913122572EF4402FD7B017A50791312257E9043A0E0FFEF4440FF9043A0EFF09043C2E0FFEF4410FF9043C2EFF020
:401140007B087A0479E0C003C002C0017B007A51790290000A120817D001D002D0037F087E0012223B7B087A0479E8C003C002C0017B007A51791090000A120817D001D076
:4011800002D0037F0A7E0012223B9044F47401F0904322E0FFEF4408FF904322EFF09046ECE0FFEFC394055006904689743AF090480074F1F01216B790480074B1F012216A
:4011C0004B7B007A4379A0C003C002C0017B007A4379B090000A120817D001D002D0037F0E7E0012223B9043B0E0FFEF54FDFFEFF0221224CD1224B8D2AF9044F474FDF0B4
:401200001223DA7E217F8D12237F12255A9000C0E0FEA3E0FFEF64E87003EE640370457F007E007D007C009000BB1207EB7BFF7A207979121EDD1225667F017E007D007C5B
:4012400000121D5C9000BB1207D312251C7F0A7E007D007C00121D5C12255A1225C0EF60FA121BCA9000C0E0FEA3E0FFEF64B87003EE640B70487F017E007D007C0090003C
:40128000BB1207EB12255A7BFF7A207985121EDD1225667F017E007D007C00121D5C9000BB1207D312251C7F0A7E007D007C00121D5C12255A1225C0EF60FA121BCA900033
:4012C000C0E0FEA3E0FFEF64887003EE641370457F027E007D007C009000BB1207EB7BFF7A207991121EDD1225667F017E007D007C00121D5C9000BB1207D312251C7F0AC2
:401300007E007D007C00121D5C12255A1225C0EF60FA121BCA9000C0E0FEA3E0FFEF64587003EE641B70457F037E007D007C009000BB1207EB7BFF7A20799D121EDD12253D
:40134000667F017E007D007C00121D5C9000BB1207D312251C7F0A7E007D007C00121D5C12255A1225C0EF60FA121BCA9000C0E0FEA3E0FFEF64287003EE6423600302121E
:401380000D9000C0E4F0A3E4F002120D22900001EEF0A3EFF0900003EDF0122594900005EFF012258A900006EEF0A3EFF0900006E0FEA3E0FF900001E0FCA3E0FDED6F703C
:4013C00002EC6E70030215219043A2E0FFEF5401FF900004EFF0900005E0FFEF705E900006E0FEA3E0FFEF4E600C900001E0FEA3E0FFEF4E7046900006E0FEA3E0FFEF4EF5
:40140000701D7B027A407980900001E0FCA3E0FD12254D904082E0FFEF54BFFFEFF022904082E0FFEF4440FFEFF07B027A407980900001E0FCA3E0FD12254D22900004E092
:40144000FFEF606C904001E4F09040107401F0904014E4F0904008E0FFEF547FFFEFF0904082E0FFEF5408FF7E00EF4E600C900001E0FEA3E0FFEF4E70367B027A40790291
:40148000900006E0FCA3E0FD12254D9040017407F0904001E0FFEF5401FF7E00EF4E70F19043A2E0FFEF54FEFFEFF0904001E4F09043A2E0FFEF5401FF7E00EF4E603A7BEC
:4014C000027A407902900001E0FCA3E0FD12254D900003E0FFEF60047F0280027F00EF4401FF904001EFF0904001E0FFEF5401FF7E00EF4E602B80EF227B027A4079809090
:401500000001E0FCA3E0FD12254D9043A2C083C082E0FF900004E0FEEF4EFFD082D083EFF022900001EEF0A3EFF0900003EDF01225A8900005EFF012259E900006EEF0A3FD
:40154000EFF0900006E0FEA3E0FF900001E0FCA3E0FDED6F7002EC6E70030216B69043A1E0FFEF5401FF900004EFF0900005E0FFEF705E900006E0FEA3E0FFEF4E600C90D7
:401580000001E0FEA3E0FFEF4E7046900006E0FEA3E0FFEF4E701D7B027A417900900001E0FCA3E0FD12254D904102E0FFEF54BFFFEFF022904102E0FFEF4440FFEFF07BC3
:4015C000027A417900900001E0FCA3E0FD12254D22900004E0FFEF606C904001E4F09040147401F0904010E4F0904008E0FFEF547FFFEFF0904102E0FFEF5408FF7E00EF92
:401600004E600C900001E0FEA3E0FFEF4E70367B027A407902900006E0FCA3E0FD12254D9040017407F0904001E0FFEF5401FF7E00EF4E70F19043A1E0FFEF54FEFFEFF037
:40164000904001E4F09043A1E0FFEF5401FF7E00EF4E603A7B027A407902900001E0FCA3E0FD12254D900003E0FFEF60047F0280027F00EF4401FF904001EFF0904001E0DC
:40168000FFEF5401FF7E00EF4E602B80EF227B027A417900900001E0FCA3E0FD12254D9043A1C083C082E0FF900004E0FEEF4EFFD082D083EFF0227B007A4079807D007C9C
:4016C0000012254B9040827450F07B007A4079847D007C0012254B9040867458F07B007A4079887D197C0012254B90408A7418F07B087A0479F4C003C002C0017B007A4119
:40170000790090000A120817D001D002D0037F047E0012223B9043007402F09040007408F09042007403F07B0C7A0179081225729046A1EFF07B007A4279227D087C00126A
:40174000254B7B007A4279207D517C1212254B900004E4F07F197E007D007C009000001207EB9000001207D3D3EF9400EE9400404E900004E0FFEF64036044904225E0FF1B
:40178000EF5401FF7E00900004E0FEEE25E0FEEE4FFFEF5403FF900004EFF07FE07E017D007C001222009000001207D37BFF7AFF79FF78FF12065A9000001207EB80A390EF
:4017C00000001207D3EF4E70057F0312250A7B007A4079047D007C0112254B9040047407F0904006E4F09040087448F0904004E4F09040017402F090400B7404F09043A256
:40180000E0FFEF4407FF9043A2EFF09043A1E0FFEF4401FF9043A1EFF09043A0E0FFEF4480FF9043A0EFF0221224E2900001EFF090009DE0FF900000EFF09043AAE0FFEF9D
:401840004401FFEFF09043AAE0FFEF4410FFEFF09043BAE0FFEF4401FFEFF09043BAE0FFEF4410FFEFF09046F8E0FFEF4402FFEFF09046F9E0FFEF4402FFEFF0905891E0E3
:40188000FFEF4403FFEFF0900000E0FFEF64016025900000E0FFEFB4020480028018900000E0FFEFB403048002800B900000E0FFEFB4040D800B905892E0FFEF4408FFEF45
:4018C000F07F037E001222709046F8E0FFEF54FDFFEFF09046F9E0FFEF54FDFFEFF0905877E0FFEF4406FFEFF0905882747AF09043A1E0FFEF4401FFEFF09043B1E0FFEF69
:401900004401FFEFF09043A2E0FFEF4401FFEFF09043B2E0FFEF4401FFEFF09044DB7420F09044C37420F0900001E0FF12245E2275930078007583467582E8E04401F00082
:401940009046ECE0F99046FAE0FAB903225420B40012B8001AEA901FFFF07401901FFEF09046F6F0901FFEE06005901FFFE0FA90480074C0F075812190000078007920E4D0
:40198000F0A3D8FCD9FAEA9000B6F002001175151F7516FD12100D0219D50211F2E493A3F8E493A34003F68001F208DFF48029E493A3F85407240CC8C333C4540F4420C85B
:4019C000834004F456800146F6DFE4800B0102040810204080901F36E47E019360BCA3FF543F30E509541FFEE493A360010ECF54C025E060A840B8E493A3FAE493A3F8E496
:401A000093A3C8C582C8CAC583CAF0A3C8C582C8CAC583CADFE9DEE780BE900000EFF09000A3E4F0900000E0FFEF64016003021AFF904E007434F0904E027404F0904E0356
:401A40007407F0904E04E4F0904E05E4F0904E06743FF0904E08741BF0904E097471F0904E0AE4F0904E147401F09058847450F09058857427F0905886742CF0905887E46A
:401A8000F090588A7455F090588B745AF090588C7405F090588E7402F090588F7412F09058907428F090589174EBF07F4C121F8D9058947458F0905895E4F090589A74025E
:401AC000F090589B7402F090589CE4F090589DE4F07F011223F77F007E7D7D007C009000A91207EB7D017F017E0012138D7D017F087E001215227C217DFF7F1D121C5A22A7
:401B000090009D7401F09000A8E4F07F1012233D7F1012235E7D077F1D121E239058967407F0905897E4F090589EE4F0905B07E0FFEF4418FFEFF0905893E4F0905B88E43B
:401B4000F0905B89E4F0905880740AF0905881E4F0905883E4F0905888745BF0905889745EF090588DE4F0904E017414F09000057410F09000067401F07B007A807DDA7C8D
:401B8000907F01120E0890009DE0FFEF75F003A424A4F582E43400F583E0FF904E0EEFF090009DE0FFEF75F003A424A2F582E43400F583E0FCA3E0FD7B027A4E790C12253C
:401BC0004D90009DE0FF121A1A22121CDC900000EEF0A3EFF0121CDCEE3395E0FDFC121FE09000241207EB7B017A007900121E82900002EEF0A3EFF07B017A007904C0037F
:401C0000C002C0017BFF7A2079A990002B1208179000241207D390002E1207EBD001D002D0031209EA7BFF7A2079AF121EDD7B017A007904121EDD7BFF7A2079B8121EDD07
:401C40007BFF7A2079BB900002E0FEA3E0FF90002BEEF0A3EFF01209F022900001EFF0900002ECF0A3EDF0900001E0FFEFD3941F5003D38001C340057F001224A390000107
:401C8000E0FFEF541FFF7E00EF25E0FFEE33FEEF2400FFEE3444FEAA06A9077B0112253E900004EEF0A3EFF0900001E0FF7E02EF8EF0A4FFAEF0EF2400FFEE3444FEAA06D5
:401CC000A9077B01900002E0FEA3E0FFAD07AC0612254D900004E0FEA3E0FF22904E14E0FFEF5403FF90002AEFF090002AE0FFEFD394015032904E11E0FF7E00900028EEB3
:401D0000F0A3EFF0900028E0FEA3E0FFEF7F00FE904E10E0FD7C00EE4CFEEF4DFF900028EEF0A3EFF0801F7B027A4E791012253E900028EEF0A3EFF090002AE0FFEFB403A2
:401D400005904E12E0FF9000A3E0FFEF60059000A8E4F0900028E0FEA3E0FF2290FFFC1208521207EB8515838516821207D3D3EF9400EE9480402F9000B71207D312220094
:401D8000851583851682C083C0821207D3EF2400FFEE3480FEED34FFFDEC34FFFCD082D0831207EB80BF9000AD1207D38515838516821207DF1206751222009000041208DC
:401DC0005222904F00E0FFEF5401FFEFF0904F02E0FFEF54FCFFEFF0904F0BE0FFEF54CFFFEFF0904F0BE0FFEF4430FFEFF0904F0BE0FFEF54F0FFEFF0904F0BE0FFEF4419
:401E00000FFFEFF0904F01E0FFEF4401FFEFF07FBF7E5D1222CA7FBF7E5D1224127F0012252C22900000EFF0900001EDF0900001E0FFEFD394075003D38001C340057F0090
:401E40001224A3900000E0FFEFD3941F5003D38001C340057F001224A3900001E0FFEF5407FF7E00EF75F020A4FFAEF0900000E0FEEE541FFE74802EF582E43444F583EF89
:401E8000F0229000281208177B017A00792B90002D1208179000281207F7E92402F9EA3400FA120610FFAEF090002D1207F7EE8FF012063B9000281207F7120610FFAEF0D8
:401EC00090002D1207F7E92402F9EA3400FAEE8FF012063B90002BE0FEA3E0FF2290002812081790002BE4F0A3E4F09000CCE0FFEF60429000281207F790002BE0FEA3E059
:401F0000FFE92FF9EA3EFA1205A2FFEF60279000281207F790002BE0FEA3E0FFE92FF9EA3EFA1205A2FF12242C90002BE475F0011205FA80BE224400C2000000004400BB96
:401F4000000000014200C000004100A8004100A30041009E004100A40041009D014400B2016E36004400AD00005DC04100B1184400B72EE000004100CC004100CD004100D6
:401F8000CEFF4300C60000004100CF0000900001EFF01224E2900002EFF09046F8E0FFEF4403FFEFF09046F9E0FFEF4403FFEFF0900001E0FF905892EFF07F037E001222C2
:401FC000709046F8E0FFEF54FCFFEFF09046F9E0FFEF54FCFFEFF0900002E0FF12245E229000281207EB9000281207D390009F1207DF1206679000281207EB9000A91207A1
:40200000D3EC120239C004C005C006C0079000281207D3EC120239D003D002D001D00012012390002C1207EB90002C1207D322900003EFF0900003E0FFEFC3940250399056
:402040000003E0FFEF25E024C8F582E43425F583E493FE740193FF8F828E83C083C082E0FF900003E0FEEE9025CC93FEEEF4FEEF5EFFD082D083EFF0220A0D20706F727431
:4020800020310A0D000A0D20706F727420320A0D000A0D20706F727420330A0D000A0D20706F727420340A0D0025352E33660020414443203A2020000A0D002530327800CD
:4020C000900002EFF0900002E0FFEFC394025036900002E0FFEF25E024C8F582E43425F583E493FE740193FF8F828E83C083C082E0FF900002E0FEEE9025CC93FEEF4EFF05
:40210000D082D083EFF022C2D5E830E70FB2D5E4C39BFBE49AFAE499F9E498F8EC30E717B2D512213D120700E4C39BFBE49AFAE499F9E498F8800312070030D50DE4C39F71
:40214000FFE49EFEE49DFDE49CFC227B0C7A0179CF122572900000EFF0900000E0FFEF5407FF90586EEFF0900000E0FFEFC4540FFFEF540FFF90586FEFF090510D74F0F028
:40218000905B0074F0F09058767444F022C0E0C0F0C083C082C085C084C086758600C093759300C0D075D000C0009000C0E475F0011205FAD000D0D0D093D086D084D085AC
:4021C000D082D083D0F0D0E0321224E2900000EFF0906499E0FFEF4420FFEFF0906598E0FFEF4410FFEFF0906596E0FFEF4410FFEFF0122476900000E0FF12245E22323227
:40220000EC4D4E700D78FCEF24E950032840FD2200007BF178DA0000EF28FF78FFEE38FEED38FDEC38FC50E7EF2BFFEE38FEED38FDEC38FC40F22205020304758600EF4E4F
:402240006027EF60010E75930090000AE0F595A3E0F585A3E0F5848B938A838982E0A30586F0A31586DFF6DEF4E4F593F5952232EEFA9000B1E0F88FF0A4FFAEF0E88AF0EE
:40228000A42EFEE5F03400FDEF24C9FF78FFEE38FEED38FDE438FC500302220022ACEAADA08B938A838982E0F96017A3E0F5EAA3E0F5A0A3E060F4FAA3E0F8A3E0F2DAF889
:4022C000D9E98DA08CEAE4F59322900000EEF0A3EFF0900000E0FEA3E0FF900002EEF0A3EFF07B027A4F7904900002E0FCA3E0FD12254D22900002E4F0900002E0FFEFC339
:4023000094025010900002E0FF12202F900002E004F080E59000CE74FFF0229043A3E0FFEF4401FFEFF09043B3E0FFEF4401FFEFF0904F00E0FFEF4401FFEFF022900000C7
:40234000EFF0904082C083C082E0FF900000E0FEEE54F8FEEF4EFFD082D083EFF022900000EFF0904102C083C082E0FF900000E0FEEE54F8FEEF4EFFD082D083EFF0229082
:402380000000EEF0A3EFF01225B9900000E0FEA3E0FF1223BC7F0712248D1225B2229064897472F09065887420F09064277407F09064377448F0906586E4F022900002EEF6
:4023C000F0A3EFF07B027A447900900002E0FEA3E0FFAD07AC0612254D2290009EE0FFEF70119000A4E0FFEF7003121B0090009E7401F012182822900001EFF01222F4906B
:402400000001E0FF1220C0900001E0FF9000CEEFF022900000EEF0A3EFF07B027A4F7906900000E0FCA3E0FD12254D22900059EFF0906566E0FFEF20E2F7900059E0FF9072
:402440006546EFF022EC4D6011ED60010C8B938A838982E4F0A3DDFCDCFA75930022EF54016004D2AF8002C2AFEF5402FF9044F4E054FD4FF0229043A2E0FFEF4404FFEFF3
:40248000F09043B2E0FFEF4404FFEFF022900002EFF0900002E0FFEFC43354E0FF904480EFF02290FFFF120852EFF09046EA7401F0900001120852229000CCE0FFEF700981
:4024C00012239E9000CC7401F01221C9229000CDE0FFEF7009121DC29000CD7401F012231B229044F4E0F84402F0E85402FF10AF012274014FFF22900058EFF0900058E0F8
:40250000FF12242C900058E0FF22900005EFF0900005E0FF900005EFF080FE22900000EFF0900000E0FF906477EFF022900000EFF0900000E0FF904F03EFF0228B938A831F
:402540008982E0FFA3E0FE759300228B938A838982EDF0A3ECF075930022904E00E0FFEF4401FFEFF022904E00E0FFEF54FEFFEFF0228B938A838982E0759300FF228B93BE
:402580008A838982EDF0759300227B027A40798012253E22904082E0FFEF5407FF227B027A41790012253E22904102E0FFEF5407FF229044C07401F0229044C87401F022F6
:4025C000906467E0FF2232325B035B034020004F00000C00512000500051C000100051F000100100001000011400040001188003800140000A00014C000200015000002020
:402600000118000804600080000000000000000000000000000000000000000000000000000000000000000000000000000000000000000000000000000000000000000095
:40264000000000000000000000000000000000000000000000000000000000000000000000000000000000000000000000000000000000000000000000000000000000005A
:40268000000000000000000000000000000000000000000000000000000000000000000000000000000000000000000000000000000000000000000000000000000000001A
:4026C00000000000000000000000000000000000000000000000000000000000000000000000000000000000000000000000000000000000000000000000000000000000DA
:402700000000000000000000000000000000000000000000000000000000000000000000000000000000000000000000000000000000000000000000000000000000000099
:0200000480007A
:400000001D004F0201800A4B00520300C001500C8000640277038972006502860F883801040439883F4459045F010105072001231087108B018F80E240E6200106460902D6
:400040000B010C090E0413021409180219022408260128082A012B023002320433013401360837023E01580459045C995F01820E8402850686048B018F0194019701980862
:4000800099069A02A008A304A402A502A60CAB01B001B106B40EB701B902BA20BF01C004C615C80CC9FFCA07CBFFCC40CD20CEF0CF05D008D804D904DA04DB04DC92DD02D8
:4000C000DF01E040E1A8E240E3200107330102031007020A080B200D100E2011041280172819031A081B101D021E281F8820422508272129012B182F08310833103722388D
:400100000439543E104040511052805310598069506A106B0A84019F01A604A780B401B604C08CC266C46CCA27CCA6CE2ED001D608EA4001083D000101040502080109069D
:400140000F0111071D061F012201250729012A012B06300135073802580459045C225F01811084038518880389088A0C8C0F8F0390029304940C96039801993C9B029C0F55
:400180009D3C9F01A008A13FA404A80CA927AB18AD04AE03B320B40FB51FBA22BB20BF04D602D712D804D904DB04DC22DD20DF0101092C00440120052108600A601080139F
:4001C00064144015201608184019211E8021302214270829612B402D202E083040312032813501368038283A023B403E223F445A0868026914709472227324C057C20FC418
:400200005FCA6DCC9DCEFFD602EC10011502AC40E80201164402010401050307040909130E15031601170C1A0121102503270428013001330F35103B083E013F104024413F
:400240000345EC470B481349FF4AFF4BFF4EF04F44500C5401580459045A045B045C205D225F0166C06A406B0280098210840C861187038D088E039307941C960297059D25
:4002800002A210A414A810A906AA0CB01FB108B507BB20BF01D804D904DC22DF010117350044010204040503062008040C040F2411081288171018401E8020842608271845
:4002C00028042D05310132883501360838443C043F204502462047104D054F0455045D015EA05F0879047A10940499019F10A102A280A310B180C03DC264C44ECAC4CCCB75
:40030000CE6AD0E0D6F0E208EC90011813841485018623890190289101921298029A0CA43EA83EB030B101B40EB601D804D904DC22DF0101193C0108048005190A440E80B7
:400340000F2A1114152016081789188419101A461D801F15210223C0268027012D202E0A30023501368039143E203F44458247084D204FA257045F02678A8740913493044D
:4003800094049642974099219A229B089C209D40A002A240A340A680C0F4C2FAC4F6CAE0CC91CE76D0D0D230D680D8B0EC10011B04B020B148B312E8020140033280358083
:4003C000CC3001410858015D02600865089D80A680D6C0D8C001420B12805B08870888018C089C099D8AA680C410D640E210014306131085029D82B508C440E610014402EB
:400400007C01DE01014501940101460345029401D001014703A502B401EC08014808270485809D809F04B310B704C820E210014C060C405B01B502C201D602EC08014D03C7
:40044000AF01B040EA01015008000401010A040B010C0410041A041C04015101000E0000030000000102100003060800020010010007200003000000000020000006040126
:4004800000040300000604010001030600000300040020000300180700000080000045006405030001C0000E12FFFFFF62A0F0410C00000018000400040404042222000118
:4004C00000000000000040020010301000101012000000000000000000000000000000000000000000F0F000400080404000400000000000080018010000000000000000B7
:4005000000000000000000000000000000000000000000000000000000000000000000000000000000000000000000000000000000000000000000000000000000000000BB
:40054000000000000000000000000000000000000000000000000000000000000000000000000000000000000000000000000000000000000000000000000000000000007B
:40058000000000000000000000000000000000000000000000000000000000000000000000000000000000000000000000000000000000000000000000000000000000003B
:4005C00000000000000000000000000000000000000000000000000000000000000000000000000000000000000000000000000000000000000000000000000000000000FB
:0200000490006A
:0400000000004005B7
:0200000490105A
:04000000BC90ACAF55
:0200000490303A
:02000000E49981
:0200000490501A
:0C00000000011E0D206903011E210502F5
:0200000490402A
:4000000000000000000000000000000000000000000000000000000000000000000000000000000000000000000000000000000000000000000000000000000000000000C0
:00000001FF
