:10000000021040008F828E83E0540100000070F8DF
:100010002278FFE4F6D8FD02109EEC4D6011E8490D
:100020007017ED33EC3304600DE4FCFFFEFD22E9B4
:1000300033E8330470F80202E31202AE5804600998
:10004000E4CC248150062850090202ED2840030226
:1000500002EAC0E0EB4A7044B98006D0E0FB02023D
:10006000D9EF4E701CBD8008EBFFEAFEE9FD80EB86
:10007000E98DF0A4FEE5F0020103E9CDF9EAFEEB1B
:10008000FFEF89F0A4FCE5F0CE89F0A42EFFE43563
:10009000F0CD89F0A42DFEE435F08067EF4E7005B9
:1000A000BD80D780C3EF8BF0A4ACF0EE8BF0A42C16
:1000B000FCE435F0F8EF8AF0A42CE5F038FCE433EA
:1000C000CB8DF0A42CFCE5F03BF8EE8AF0A42CFCE0
:1000D000E5F038F8E433CF89F0A42CFCE5F038CF14
:1000E0003400CE89F0A42FFFE5F03EFEE433C98D45
:1000F000F0A42EFEE5F039CD8AF0A42FFFE5F03E06
:10010000FEE43DFD33D0E0FB50070BBB000F0202C5
:10011000EDEC2CFCEF33FFEE33FEED33FD0202C5B8
:100120000202EDEC5D046005E8590470030202E38D
:100130001202AE580460F6EC4860F2EC7004FDFE6A
:10014000FF22C860DB2481C85009C39860025006B2
:100150000202EA9850CAF582E9294B4A7005AB823F
:100160000202D975F0007C1A7880C3EF9BEE9AEDFD
:1001700099400DC3EF9BFFEE9AFEED99FDE842F02A
:10018000DC23ACF0D0E0FFD0E0FED0E0FDAB82207D
:10019000E7101BEB60BAEC2CFCEF33FFEE33FEED07
:1001A00033FD0202C5E803F830E705C0F075F00042
:1001B000EF2FFFEE33FEED33FD40B830E7C280AAEB
:1001C00074F8CC6480CCC86480C8F58204604FC3E6
:1001D000EB9FF5F0EA9E42F0E99D42F0E89C45F085
:1001E000603C501DE5825FFFE582D313CB5BCBF40F
:1001F0002B5582FB50280ABA002409B90020088038
:100200001DE5825BFBE582D313CF5FCFF4C3132FD1
:100210005582FF50090EBE00050DBD00010CC3EB59
:100220009FF5F0EA9E42F0E99D42F0E89C45F060BF
:1002300007CC4820E701B3EC2275F020800E75F062
:1002400010800575F0087D007E007F003392D53068
:10025000D5031204C8EC334010EF33FFEE33FEED4C
:1002600033FDEC33FCD5F0ED22E5F0247EA2D5136E
:10027000CC92E7CDCEFF22EDD2E7CD33EC3392D551
:1002800024814006E4FFFEFDFC22FCE4CFCECDCC71
:1002900024E0501174FF80EDC3CC13CCCD13CDCE30
:1002A00013CECF13CF0470F030D5DE0204C8E9D2EC
:1002B000E7C933E833F892D5EDD2E7CD33EC33FC20
:1002C0005002B2D522EC30E7100FBF000C0EBE007A
:1002D000080DBD00040BEB6014A2D5EB13FCED92EE
:1002E000E7FD2274FFFCFDFEFF22E480F8A2D57436
:1002F000FF13FC7D80E480EFBB010689828A83E0E6
:10030000225002E722BBFE02E32289828A83E49321
:1003100022BB010689828A83F0225002F722BBFEAB
:1003200001F322C5F0F8A3E028F0C5F0F8E5821546
:100330008270021583E038F022BB010A89828A8329
:10034000E0F5F0A3E022500687F009E71922BBFE92
:1003500007E3F5F009E3192289828A83E493F5F033
:1003600074019322BB010A89828A83F0E5F0A3F02D
:10037000225006F709A7F01922BBFE06F3E5F009A3
:10038000F31922EF2BFFEE3AFEED39FDEC38FC229B
:10039000C3EF9BFFEE9AFEED99FDEC98FC22E88FEF
:1003A000F0A4CC8BF0A42CFCE98EF0A42CFC8AF0F9
:1003B000EDA42CFCEA8EF0A4CDA8F08BF0A42DCCFB
:1003C0003825F0FDE98FF0A42CCD35F0FCEB8EF054
:1003D000A4FEA9F0EB8FF0A4CFC5F02ECD39FEE43A
:1003E0003CFCEAA42DCE35F0FDE43CFC2275F0087F
:1003F000758200EF2FFFEE33FECD33CDCC33CCC56D
:100400008233C5829BED9AEC99E58298400CF58287
:10041000EE9BFEED9AFDEC99FC0FD5F0D6E4CEFBF9
:10042000E4CDFAE4CCF9A88222B800C1B90059BAE7
:10043000002DEC8BF084CFCECDFCE5F0CBF9781815
:10044000EF2FFFEE33FEED33FDEC33FCEB33FB100F
:10045000D703994004EB99FB0FD8E5E4F9FA227829
:1004600018EF2FFFEE33FEED33FDEC33FCC933C93B
:1004700010D7059BE99A4007EC9BFCE99AF90FD845
:10048000E0E4C9FAE4CCFB2275F010EF2FFFEE3365
:10049000FEED33FDCC33CCC833C810D7079BEC9AA4
:1004A000E899400AED9BFDEC9AFCE899F80FD5F02D
:1004B000DAE4CDFBE4CCFAE4C8F922EF4BFFEE4AD4
:1004C000FEED49FDEC48FC22C3E49FFFE49EFEE400
:1004D0009DFDE49CFC22EB9FF5F0EA9E42F0E99D35
:1004E00042F0E89C45F022E8600FECC313FCED13EA
:1004F000FDEE13FEEF13FFD8F122E8600FEFC333D8
:10050000FFEE33FEED33FDEC33FCD8F122E0FCA32B
:10051000E0FDA3E0FEA3E0FF22E0F8A3E0F9A3E002
:10052000FAA3E0FB227401FF3395E0FEFDFCA3A3D8
:10053000A3E02FFFF0E582158270021583E03EFEF6
:10054000F0E582158270021583E03DFDF0E582152D
:100550008270021583E03CFCF022ECF0A3EDF0A3E6
:10056000EEF0A3EFF022E0FBA3E0FAA3E0F922EB28
:10057000F0A3EAF0A3E9F022E493FB740193FA7488
:100580000293F922D083D082F8E49370127401931D
:10059000700DA3A393F8740193F5828883E47374B8
:1005A00002936860EFA3A3A380DFE50C2582F582A8
:1005B000E50B3583F583B50B0485820C2210AF065D
:1005C00085820CF50B2285820CF50BD2AF22EC8EC6
:1005D000F0A4CCC5F0CCCDF8EFA4CEC5F02DFDE451
:1005E0003CFCE8A42EC8C5F03DFDE43CFCEFA4FFB4
:1005F000E5F028FEE43DFDE43CFC22E709F608DFD7
:10060000FA8046E709F208DFFA803E88828C83E7A9
:1006100009F0A3DFFA8032E309F608DFFA806EE31F
:1006200009F208DFFA806688828C83E309F0A3DF91
:10063000FA805A89828A83E0A3F608DFFA804E891D
:10064000828A83E0A3F208DFFA804280D280FA80B7
:10065000C680D4805580F28029801080A680EA80F0
:100660009A80A880DA80E280CA802988848C858973
:10067000828A83E493A30586F0A30586DFF5DEF383
:10068000800B89828A83E493A3F608DFF9ECFAA948
:10069000F0EDFB2288848C8589828A83E0A305861D
:1006A000F0A30586DFF6DEF480E389828A83E49393
:1006B000A3F208DFF980D688F0EF60010E4E60CD1E
:1006C00088F0ED2402B4040050C3F582EB2402B498
:1006D000040050B9232345822390064B7390016494
:1006E000EFF0900165ECF0A3EDF0900167EAF0A364
:1006F000EBF090016AE0FFEFD3940050030208DCB6
:1007000090016AE0FFEFD3940140030208DC9001FE
:1007100064E0FFEF120584072A01072A0407570740
:1007200007820807AD0A000007D8900169E0FFEFD3
:10073000D3940F40117B0C7A017918121D1490018B
:100740006BEFF00207DD7B0C7A01791C121D14900F
:10075000016BEFF00207DD900169E0FFEFD3940F2A
:1007600040107B0C7A017919121D1490016BEFF087
:10077000806B7B0C7A01791D121D1490016BEFF0D8
:10078000805B900169E0FFEFD3940F40107B0C7AFF
:1007900001791A121D1490016BEFF080407B0C7AE6
:1007A00001791E121D1490016BEFF08030900169E9
:1007B000E0FFEFD3940F40107B0C7A01791B121DE0
:1007C0001490016BEFF080157B0C7A01791F121DDC
:1007D0001490016BEFF0800590016BE4F090016BD9
:1007E000E0FFEF3395E0FEFDFC7B207A0079007896
:1007F0000012039EA804A905AA06AB07900165E0B4
:10080000FEA3E0FFE4FCFD12038390016C12055A85
:1008100090016C12050DAB07AA06A905A804A8044F
:10082000A905AA06AB07900167E0FEA3E0FFE4FC80
:10083000FD12039E90017212055A7B007A807900A6
:10084000780090017212050D120429900170EEF0EB
:10085000A3EFF0900169E0FFEFC3940E50479001C1
:1008600070E0FEA3E0FF900169E0FDC3740E9DFD02
:10087000EFA805088005CEC313CE13D8F9FF900169
:1008800070EEF0A3EFF0900169E0FFEF04FF90013C
:100890006AE0FEEE75F003A4249BF582E43401F5D2
:1008A00083EFF0801690016AE0FFEF75F003A42457
:1008B0009BF582E43401F583740FF0900170E0FE43
:1008C000A3E0FF90016AE0FDED75F003A42499F523
:1008D00082E43401F583EEF0A3EFF0227F00121CD6
:1008E00058227B007A4679E8121D14EF4405FD7BFF
:1008F000007A4679E8121D20750A00E50AC3940AB9
:10090000503AAF0AEF75F005A42466F582E4341D71
:10091000F583AF82AE838E088F09AE08AF098F8250
:100920008E83120578AE08AF098F828E837403938D
:10093000FC740493FD121BE3050A80BF7B087A0058
:100940007900121A3B905883740AF07B017A50792F
:1009500003121D14EF4402FD7B017A507903121D2E
:10096000207B017A507913121D14EF4402FD7B01A4
:100970007A507913121D209043A0E0FFEF4440FF0E
:100980009043A0EFF09043C2E0FFEF4410FF90438C
:10099000C2EFF07B087A067930C003C002C0017B49
:1009A000007A51790290016E12056FD001D002D009
:1009B000037F087E001219927B087A067938C003FB
:1009C000C002C0017B007A51791290016E12056F4E
:1009D000D001D002D0037F087E001219927B087AE2
:1009E000067940C003C002C0017B007A5179209093
:1009F000016E12056FD001D002D0037F0A7E001273
:100A000019927B087A06794CC003C002C0017B00B2
:100A10007A51794290016E12056FD001D002D00355
:100A20007F087E001219929044F47401F0904322E2
:100A3000E0FFEF4408FF904322EFF09046ECE0FF28
:100A4000EFC394055006904689743AF090480074BC
:100A5000F1F0120DB990480074B1F01217467B0006
:100A60007A4379A0C003C002C0017B007A4379B009
:100A700090016E12056FD001D002D0037F0E7E0070
:100A80001219929043B0E0FFEF54FDFFEFF0229077
:100A90000165EEF0A3EFF0900167EDF0121D2C90D0
:100AA0000169EFF01219F590016AEEF0A3EFF090F2
:100AB000016AE0FEA3E0FF900165E0FCA3E0FDED2C
:100AC0006F7002EC6E7003020C239043A2E0FFEF04
:100AD0005401FF900168EFF0900169E0FFEF705E54
:100AE00090016AE0FEA3E0FFEF4E600C900165E02C
:100AF000FEA3E0FFEF4E704690016AE0FEA3E0FF28
:100B0000EF4E701D7B027A407980900165E0FCA376
:100B1000E0FD121CEF904082E0FFEF54BFFFEFF0CA
:100B200022904082E0FFEF4440FFEFF07B027A40EA
:100B30007980900165E0FCA3E0FD121CEF2290019A
:100B400068E0FFEF606C904001E4F09040107401A9
:100B5000F0904014E4F0904008E0FFEF547FFFEF86
:100B6000F0904082E0FFEF5408FF7E00EF4E600CF3
:100B7000900165E0FEA3E0FFEF4E70367B027A4005
:100B8000790290016AE0FCA3E0FD121CEF904001A5
:100B90007407F0904001E0FFEF5401FF7E00EF4E3C
:100BA00070F19043A2E0FFEF54FEFFEFF0904001A0
:100BB000E4F09043A2E0FFEF5401FF7E00EF4E60AF
:100BC0003A7B027A407902900165E0FCA3E0FD12D5
:100BD0001CEF900167E0FFEF60047F0280027F005E
:100BE000EF4401FF904001EFF0904001E0FFEF542F
:100BF00001FF7E00EF4E602B80EF227B027A40796E
:100C000080900165E0FCA3E0FD121CEF9043A2C0C0
:100C100083C082E0FF900168E0FEEF4EFFD082D0FB
:100C200083EFF022900165EEF0A3EFF0900167ED05
:100C3000F0121D40900169EFF0121D3690016AEE2E
:100C4000F0A3EFF090016AE0FEA3E0FF900165E001
:100C5000FCA3E0FDED6F7002EC6E7003020DB89026
:100C600043A1E0FFEF5401FF900168EFF0900169AC
:100C7000E0FFEF705E90016AE0FEA3E0FFEF4E60E0
:100C80000C900165E0FEA3E0FFEF4E704690016A14
:100C9000E0FEA3E0FFEF4E701D7B027A41790090E9
:100CA0000165E0FCA3E0FD121CEF904102E0FFEFC4
:100CB00054BFFFEFF022904102E0FFEF4440FFEF0E
:100CC000F07B027A417900900165E0FCA3E0FD121F
:100CD0001CEF22900168E0FFEF606C904001E4F0AF
:100CE0009040147401F0904010E4F0904008E0FF50
:100CF000EF547FFFEFF0904102E0FFEF5408FF7EDA
:100D000000EF4E600C900165E0FEA3E0FFEF4E7037
:100D1000367B027A40790290016AE0FCA3E0FD1282
:100D20001CEF9040017407F0904001E0FFEF540188
:100D3000FF7E00EF4E70F19043A1E0FFEF54FEFF05
:100D4000EFF0904001E4F09043A1E0FFEF5401FF89
:100D50007E00EF4E603A7B027A407902900165E0B6
:100D6000FCA3E0FD121CEF900167E0FFEF60047F41
:100D70000280027F00EF4401FF904001EFF09040BD
:100D800001E0FFEF5401FF7E00EF4E602B80EF2269
:100D90007B027A417900900165E0FCA3E0FD121C22
:100DA000EF9043A1C083C082E0FF900168E0FEEFB6
:100DB0004EFFD082D083EFF0227B007A4079807D95
:100DC000007C00121CED9040827450F07B007A4051
:100DD00079847D197C00121CED9040867418F07B9C
:100DE000087A067954C003C002C0017B007A4179B9
:100DF0000090016E12056FD001D002D0037F047EF7
:100E0000001219929043007402F09040007408F0B0
:100E10009042007403F07B0C7A017908121D149043
:100E200046A1EFF07B007A4279227D087C00121CFB
:100E3000ED7B007A4279207D517C12121CED9001ED
:100E400068E4F07F197E007D007C0090016412054B
:100E50005A90016412050DD3EF9400EE9400404EB9
:100E6000900168E0FFEF64036044904225E0FFEFEB
:100E70005401FF7E00900168E0FEEE25E0FEEE4F9B
:100E8000FFEF5403FF900168EFF07FE07E017D00EB
:100E90007C00121A0090016412050D7BFF7AFF7925
:100EA000FF78FF12038390016412055A80A390011A
:100EB0006412050DEF4E70057F03121CAC7B007AA7
:100EC0004079047D007C01121CED9040047407F011
:100ED000904006E4F09040087448F0904004E4F03C
:100EE0009040017402F090400B7404F09043A2E033
:100EF000FFEF4403FF9043A2EFF09043A1E0FFEF28
:100F00004401FF9043A1EFF09043A0E0FFEF448045
:100F1000FF9043A0EFF022121C82121C6DD2AF9002
:100F200044F474FDF0121B787E197F21121B1D12F0
:100F30001CFC900113E0FEA3E0FFEFB4E8F4EEB474
:100F400003F0900113E4F0A3E4F0121D087F017E8A
:100F5000007D007C0012162090011512050D121C58
:100F6000BE7F0A7E007D007C00121620121CFC123F
:100F70001D58EF60FA90011512050D74052FF582CA
:100F8000E43401F583E0FF121BCA7BFF7A1C79145D
:100F90001217A090011912050D74002FF9E4340006
:100FA000FA7B0112152F90011912050D74002FF50F
:100FB00082E43400F583E0FF1213A69001191205B4
:100FC0000D74012FF582E43400F583E0FF1213A6BF
:100FD0007BFF7A1C79181217A07F1C7E007D007C95
:100FE00000900119120519C31204D6700E7F007EFD
:100FF000007D007C0090011912055A90011912051C
:101000000DEF2402FFEE3400FEED3400FDEC340061
:10101000FC90011912055A9001151205257B0E7AD4
:101020000079007800C31204D66003020F327F00FB
:101030007E007D007C0090011512055A020F3222BD
:1010400075930078007583467582E8E04401F000EE
:101050009046ECE0F99046FAE0FAB903225420B445
:101060000012B8001AEA901FFFF07401901FFEF002
:101070009046F6F0901FFEE06005901FFFE0FA90AA
:10108000480074C0F075810C90000078007920E46D
:10109000F0A3D8FCD9FAEA9001ADF0020011750B6B
:1010A0001F750CFD1208E20210E5020F17E493A36E
:1010B000F8E493A34003F68001F208DFF48029E40A
:1010C00093A3F85407240CC8C333C4540F4420C856
:1010D000834004F456800146F6DFE4800B010204ED
:1010E00008102040809015AAE47E019360BCA3FF05
:1010F000543F30E509541FFEE493A360010ECF5422
:10110000C025E060A840B8E493A3FAE493A3F8E410
:1011100093A3C8C582C8CAC583CAF0A3C8C582C87C
:10112000CAC583CADFE9DEE780BE900164EFF090B4
:10113000019AE4F0900164E0FFEF640160030212A1
:101140000D904E007434F0904E027404F0904E03F3
:101150007406F0904E04E4F0904E05E4F0904E06D4
:10116000743FF0904E08E4F0904E09E4F0904E0A7F
:10117000E4F0904E147401F09058847450F090583C
:10118000857427F0905886742CF0905887E4F0907E
:10119000588A7455F090588B745AF090588C740596
:1011A000F090588E7402F090588F7412F09058900E
:1011B0007428F090589174EBF07F441217F990580E
:1011C000947458F0905895E4F090589A7402F09006
:1011D000589B7402F090589CE4F090589DE4F07F86
:1011E00000121B957F007EFA7D007C009001A0120A
:1011F000055A7D017F017E00120A8F7D017F087EE6
:1012000000120C247C197DC77F1D12142D22121C84
:1012100097900165EFF0900194E0FF900164EFF08A
:101220009043AAE0FFEF4401FFEFF09043AAE0FFF4
:10123000EF4410FFEFF09043BAE0FFEF4401FFEFFF
:10124000F09043BAE0FFEF4410FFEFF09046F8E073
:10125000FFEF4402FFEFF09046F9E0FFEF4402FF9A
:10126000EFF0905891E0FFEF4403FFEFF07F037E33
:10127000001219C89046F8E0FFEF54FDFFEFF09020
:1012800046F9E0FFEF54FDFFEFF0905877E0FFEFF5
:101290004406FFEFF0905882747AF09043A1E0FF8B
:1012A000EF4401FFEFF09043B1E0FFEF4401FFEFA7
:1012B000F09043A2E0FFEF4401FFEFF09043B2E073
:1012C000FFEF4401FFEFF09044DB7420F09044C343
:1012D0007420F0900165E0FF121BFC2290019474D1
:1012E00001F090019FE4F07F10121ADB7F10121AB8
:1012F000FC7D077F1D1216E79058967407F09058F2
:1013000097E4F090589EE4F0905B07E0FFEF4418FC
:10131000FFEFF0905893E4F0905B88E4F0905B89E5
:10132000E4F0905880740AF0905881E4F09058836B
:10133000E4F0905888745BF0905889745EF090588F
:101340008DE4F0904E017414F09001697410F090E7
:10135000016A7401F07B007A807DDA7C907F001254
:1013600006DD900194E0FFEF75F003A4249BF58265
:10137000E43401F583E0FF904E0EEFF0900194E02D
:10138000FFEF75F003A42499F582E43401F583E0BE
:10139000FCA3E0FD7B027A4E790C121CEF900194C5
:1013A000E0FF12112A22900164EFF0900165E4F051
:1013B0007BFF7A1C791BC003C002C0017B017A014C
:1013C0007966A801AC02AD03D001D002D0037E0043
:1013D0007F101206B7900176740FF0900164E0FF61
:1013E000EFC4540FFF900176E0FEEF5EFF900165C1
:1013F000EFF0900165E0FF74662FF582E43401F5AB
:1014000083E0FF121BCA900176E0FF900164E0FECA
:10141000EE5FFF900165EFF0900165E0FF74662FCD
:10142000F582E43401F583E0FF121BCA22900165C6
:10143000EFF0900166ECF0A3EDF0900165E0FFEFB6
:10144000D3941F5003D38001C340057F00121C5862
:10145000900165E0FFEF541FFF7E00EF25E0FFEEF7
:1014600033FEEF2400FFEE3444FEAA06A9077B01F9
:10147000121CE0900168EEF0A3EFF0900165E0FF30
:101480007E02EF8EF0A4FFAEF0EF2400FFEE3444B6
:10149000FEAA06A9077B01900166E0FEA3E0FFAD6E
:1014A00007AC06121CEF900168E0FEA3E0FF22905B
:1014B0004E14E0FFEF5403FF900193EFF09001937F
:1014C000E0FFEFD394015032904E11E0FF7E009088
:1014D0000191EEF0A3EFF0900191E0FEA3E0FFEFA9
:1014E0007F00FE904E10E0FD7C00EE4CFEEF4DFFC5
:1014F000900191EEF0A3EFF0801F7B027A4E7910FD
:10150000121CE0900191EEF0A3EFF0900193E0FF48
:10151000EFB40305904E12E0FF90019AE0FFEF60F8
:101520000590019FE4F0900191E0FEA3E0FF22907E
:10153000016412056F900169E4F0A374FFF01214C6
:10154000AF900167EEF0A3EFF0900167E0FEA3E03B
:10155000FFEEFF3395E0FE900169E0FCA3E0FDAEF5
:1015600005EF5EFF90016BEFF0900169E0FEA3E0F4
:10157000FF900167E0FCA3E0FDAE05EE5FFF900188
:101580006CEFF090016BE0FF900164120566EF12C2
:10159000031190016CE0FF900164120566E92401DB
:1015A000F9EA3400FAEF1203112244011D00000091
:1015B0000044010000000001420113000044011535
:1015C00000000000440119000000004E0105313206
:1015D00033343536373839414243444541019F0061
:1015E00041019A004101950041019B004101940194
:1015F0004401A9016E36004401A400005DC0410110
:10160000A8184401AE2EE000004101B8004101B924
:10161000004101BAFF4301B20000004101BB0000DC
:1016200090FFFC1205AA12055A850B83850C8212C5
:10163000050DD3EF9400EE9480402F9001AE12057B
:101640000D121A00850B83850C82C083C08212059F
:101650000DEF2400FFEE3480FEED34FFFDEC34FF8F
:10166000FCD082D08312055A80BF9001A412050DD0
:10167000850B83850C8212051912039E121A0090A5
:1016800000041205AA22904F00E0FFEF5401FFEF83
:10169000F0904F02E0FFEF54FCFFEFF0904F0BE0B3
:1016A000FFEF54CFFFEFF0904F0BE0FFEF4430FF20
:1016B000EFF0904F0BE0FFEF54F0FFEFF0904F0B87
:1016C000E0FFEF440FFFEFF0904F01E0FFEF440128
:1016D000FFEFF07FBF7E5D121A687FBF7E5D121B39
:1016E000B07F00121CCE22900164EFF0900165EDF6
:1016F000F0900165E0FFEFD394075003D38001C35E
:1017000040057F00121C58900164E0FFEFD3941F46
:101710005003D38001C340057F00121C589001651F
:10172000E0FFEF5407FF7E00EF75F020A4FFAEF05E
:10173000900164E0FEEE541FFE74802EF582E434C6
:1017400044F583EFF0227B0C7A0179CF121D1490BF
:101750000164EFF0900164E0FFEF5407FF90586ED2
:10176000EFF0900164E0FFEFC4540FFFEF540FFF60
:1017700090586FEFF090510D740FF090511D743030
:10178000F090512D743FF090514D7403F0905B0038
:1017900074FFF0905B587403F09058767444F02214
:1017A00090016412056F900167E4F0A3E4F09001EA
:1017B000B8E0FFEF6042900164120566900167E0B7
:1017C000FEA3E0FFE92FF9EA3EFA1202F8FFEF600C
:1017D00027900164120566900167E0FEA3E0FFE92F
:1017E0002FF9EA3EFA1202F8FF121BCA900167E4D1
:1017F00075F00112032380BE22900165EFF0121CE8
:1018000097900166EFF09046F8E0FFEF4403FFEF9A
:10181000F09046F9E0FFEF4403FFEFF0900165E040
:10182000FF905892EFF07F037E001219C89046F89F
:10183000E0FFEF54FCFFEFF09046F9E0FFEF54FCBF
:10184000FFEFF0900166E0FF121BFC22900167EFB2
:10185000F0900167E0FFEFC394025039900167E018
:10186000FFEF25E02460F582E4341DF583E493FE68
:10187000740193FF8F828E83C083C082E0FF90014A
:1018800067E0FEEE901D6493FEEEF4FEEF5EFFD087
:1018900082D083EFF022900166EFF0900166E0FFC6
:1018A000EFC394025036900166E0FFEF25E024601C
:1018B000F582E4341DF583E493FE740193FF8F8277
:1018C0008E83C083C082E0FF900166E0FEEE901D33
:1018D0006493FEEF4EFFD082D083EFF022C2D5E8B2
:1018E00030E70FB2D5E4C39BFBE49AFAE499F9E43C
:1018F00098F8EC30E717B2D5121913120429E4C393
:101900009BFBE49AFAE499F9E498F880031204291D
:1019100030D50DE4C39FFFE49EFEE49DFDE49CFCF6
:1019200022C0E0C0F0C083C082C085C084C086757C
:101930008600C093759300C0D075D000C0009001A0
:1019400013E475F001120323D000D0D0D093D086D9
:10195000D084D085D082D083D0F0D0E032121C97D2
:10196000900164EFF090649AE0FFEF4420FFEFF005
:1019700090649EE0FFEF4410FFEFF0906598E0FF69
:10198000EF4410FFEFF0121C2B900164E0FF121BDC
:10199000FC22758600EF4E6027EF60010E75930004
:1019A00090016EE0F595A3E0F585A3E0F5848B93B7
:1019B0008A838982E0A30586F0A31586DFF6DEF42C
:1019C000E4F593F595223232EEFA9001A8E0F88F13
:1019D000F0A4FFAEF0E88AF0A42EFEE5F03400FD9E
:1019E000EF24C9FF78FFEE38FEED38FDE438FC50F7
:1019F00003021A00227B027A407980121CE0223214
:101A0000EC4D4E700D78FCEF24E950032840FD2288
:101A100000007BF178DA0000EF28FF78FFEE38FE57
:101A2000ED38FDEC38FC50E7EF2BFFEE38FEED38DB
:101A3000FDEC38FC40F22205020304ACEAADA08BB9
:101A4000938A838982E0F96017A3E0F5EAA3E0F5C1
:101A5000A0A3E060F4FAA3E0F8A3E0F2DAF8D9E991
:101A60008DA08CEAE4F59322900164EEF0A3EFF0F0
:101A7000900164E0FEA3E0FF900166EEF0A3EFF0BA
:101A80007B027A4F7904900166E0FCA3E0FD121C12
:101A9000EF22900166E4F0900166E0FFEFC394024C
:101AA0005010900166E0FF12184C900166E004F0BF
:101AB00080E59001BA74FFF0229043A3E0FFEF4469
:101AC00001FFEFF09043B3E0FFEF4401FFEFF09030
:101AD0004F00E0FFEF4401FFEFF022900164EFF0D0
:101AE000904082C083C082E0FF900164E0FEEE542B
:101AF000F8FEEF4EFFD082D083EFF022900164EF2A
:101B0000F0904102C083C082E0FF900164E0FEEEED
:101B100054F8FEEF4EFFD082D083EFF022900164A4
:101B2000EEF0A3EFF0121D51900164E0FEA3E0FF80
:101B3000121B5A7F07121C42121D4A2290648A749B
:101B400072F090648E7420F090642F7407F09064AB
:101B50003F7448F0906588E4F022900166EEF0A3AF
:101B6000EFF07B027A447900900166E0FEA3E0FF8B
:101B7000AD07AC06121CEF22900195E0FFEF70114B
:101B800090019BE0FFEF70031212DC90019574014D
:101B9000F012120E22900165EFF0121A9290016578
:101BA000E0FF121896900165E0FF9001BAEFF02275
:101BB000900164EEF0A3EFF07B027A4F790690017A
:101BC00064E0FCA3E0FD121CEF22900177EFF0909F
:101BD0006568E0FFEF20E2F7900177E0FF9065484D
:101BE000EFF022EC4D6011ED60010C8B938A83893C
:101BF00082E4F0A3DDFCDCFA75930022EF5401606F
:101C000004D2AF8002C2AFEF5402FF9044F4E0541C
:101C1000FD4FF022203A20000A0D003031323334DB
:101C200035363738394142434445469043A2E0FFB8
:101C3000EF4402FFEFF09043B2E0FFEF4402FFEF0A
:101C4000F022900166EFF0900166E0FFEFC433549C
:101C5000E0FF904480EFF02290FFFF1205AAEFF022
:101C60009046EA7401F09000011205AA229001B892
:101C7000E0FFEF7009121B3C9001B87401F01219DB
:101C80005D229001B9E0FFEF70091216869001B94C
:101C90007401F0121AB9229044F4E0F84402F0E81A
:101CA0005402FF10AF012274014FFF22900169EF2F
:101CB000F0900169E0FF900169EFF080FE22900151
:101CC00064EFF0900164E0FF906579EFF0229001FD
:101CD00064EFF0900164E0FF904F03EFF0228B93EC
:101CE0008A838982E0FFA3E0FE759300228B938AAA
:101CF000838982EDF0A3ECF075930022904E00E012
:101D0000FFEF4401FFEFF022904E00E0FFEF54FEA2
:101D1000FFEFF0228B938A838982E0759300FF2284
:101D20008B938A838982EDF075930022904082E044
:101D3000FFEF5407FF227B027A417900121CE02258
:101D4000904102E0FFEF5407FF229044C07401F07D
:101D5000229044C87401F02290646FE0FF22323276
:101D60005B0343244000004F00000C005130001082
:101D700000515000200051C000100051F00010012F
:101D80000000100001140008000140000A00014C8E
:081D90000002000150000020D8
:00000001FF
